{"abi":[{"type":"fallback","stateMutability":"nonpayable"},{"type":"function","name":"success","inputs":[],"outputs":[],"stateMutability":"nonpayable"},{"type":"error","name":"UniversalRouterError","inputs":[]}],"bytecode":{"object":"0x6080604052348015600f57600080fd5b5060928061001e6000396000f3fe6080604052348015600f57600080fd5b506004361060285760003560e01c80630b93381b14605a575b6040517fca46dbc400000000000000000000000000000000000000000000000000000000815260040160405180910390fd5b00fea2646970667358221220db8893290454b9de2760f371219648582b1c610d1a37808f6a496d97d841d66464736f6c63430008180033","linkReferences":{}},"methodIdentifiers":{"success()":"0b93381b"},"id":80}